{
  "_format": "hh-sol-artifact-1",
  "contractName": "MessagingApp",
  "sourceName": "contracts/MessagingApp.sol",
  "abi": [
    {
      "anonymous": false,
      "inputs": [
        {
          "indexed": true,
          "internalType": "address",
          "name": "sender",
          "type": "address"
        },
        {
          "indexed": true,
          "internalType": "address",
          "name": "receiver",
          "type": "address"
        },
        {
          "indexed": false,
          "internalType": "string",
          "name": "content",
          "type": "string"
        },
        {
          "indexed": false,
          "internalType": "string",
          "name": "imageUrl",
          "type": "string"
        },
        {
          "indexed": false,
          "internalType": "uint256",
          "name": "timestamp",
          "type": "uint256"
        }
      ],
      "name": "MessageSent",
      "type": "event"
    },
    {
      "inputs": [
        {
          "internalType": "address",
          "name": "_sender",
          "type": "address"
        }
      ],
      "name": "getAllReceivers",
      "outputs": [
        {
          "internalType": "address[]",
          "name": "",
          "type": "address[]"
        }
      ],
      "stateMutability": "view",
      "type": "function"
    },
    {
      "inputs": [
        {
          "internalType": "address",
          "name": "_sender",
          "type": "address"
        },
        {
          "internalType": "address",
          "name": "_receiver",
          "type": "address"
        }
      ],
      "name": "getConversation",
      "outputs": [
        {
          "components": [
            {
              "internalType": "address",
              "name": "sender",
              "type": "address"
            },
            {
              "internalType": "address",
              "name": "receiver",
              "type": "address"
            },
            {
              "internalType": "string",
              "name": "content",
              "type": "string"
            },
            {
              "internalType": "string",
              "name": "imageUrl",
              "type": "string"
            },
            {
              "internalType": "uint256",
              "name": "timestamp",
              "type": "uint256"
            }
          ],
          "internalType": "struct MessagingApp.Message[]",
          "name": "",
          "type": "tuple[]"
        }
      ],
      "stateMutability": "view",
      "type": "function"
    },
    {
      "inputs": [
        {
          "internalType": "address",
          "name": "_sender",
          "type": "address"
        },
        {
          "internalType": "address",
          "name": "_receiver",
          "type": "address"
        },
        {
          "internalType": "string",
          "name": "_content",
          "type": "string"
        },
        {
          "internalType": "string",
          "name": "_imageUrl",
          "type": "string"
        }
      ],
      "name": "sendMessage",
      "outputs": [],
      "stateMutability": "nonpayable",
      "type": "function"
    }
  ],
  "bytecode": "0x608060405234801561001057600080fd5b50610fe8806100206000396000f3fe608060405234801561001057600080fd5b50600436106100415760003560e01c80632b07439f14610046578063375eed271461006257806363f0459514610092575b600080fd5b610060600480360381019061005b91906109cd565b6100c2565b005b61007c60048036038101906100779190610991565b6103b1565b6040516100899190610c9d565b60405180910390f35b6100ac60048036038101906100a79190610968565b610666565b6040516100b99190610c7b565b60405180910390f35b60006040518060a001604052808673ffffffffffffffffffffffffffffffffffffffff1681526020018573ffffffffffffffffffffffffffffffffffffffff1681526020018481526020018381526020014281525090506000808673ffffffffffffffffffffffffffffffffffffffff1673ffffffffffffffffffffffffffffffffffffffff16815260200190815260200160002060008573ffffffffffffffffffffffffffffffffffffffff1673ffffffffffffffffffffffffffffffffffffffff16815260200190815260200160002081908060018154018082558091505060019003906000526020600020906005020160009091909190915060008201518160000160006101000a81548173ffffffffffffffffffffffffffffffffffffffff021916908373ffffffffffffffffffffffffffffffffffffffff16021790555060208201518160010160006101000a81548173ffffffffffffffffffffffffffffffffffffffff021916908373ffffffffffffffffffffffffffffffffffffffff1602179055506040820151816002019080519060200190610268929190610848565b506060820151816003019080519060200190610285929190610848565b5060808201518160040155505061029c8585610733565b61034157600160008673ffffffffffffffffffffffffffffffffffffffff1673ffffffffffffffffffffffffffffffffffffffff168152602001908152602001600020849080600181540180825580915050600190039060005260206000200160009091909190916101000a81548173ffffffffffffffffffffffffffffffffffffffff021916908373ffffffffffffffffffffffffffffffffffffffff1602179055505b8373ffffffffffffffffffffffffffffffffffffffff168573ffffffffffffffffffffffffffffffffffffffff167fb6e5bea89e5044d66ff49940ba0401db7bec08daacadb6d06705264874a40fea8585426040516103a293929190610cbf565b60405180910390a35050505050565b60606000808473ffffffffffffffffffffffffffffffffffffffff1673ffffffffffffffffffffffffffffffffffffffff16815260200190815260200160002060008373ffffffffffffffffffffffffffffffffffffffff1673ffffffffffffffffffffffffffffffffffffffff168152602001908152602001600020805480602002602001604051908101604052809291908181526020016000905b8282101561065a57838290600052602060002090600502016040518060a00160405290816000820160009054906101000a900473ffffffffffffffffffffffffffffffffffffffff1673ffffffffffffffffffffffffffffffffffffffff1673ffffffffffffffffffffffffffffffffffffffff1681526020016001820160009054906101000a900473ffffffffffffffffffffffffffffffffffffffff1673ffffffffffffffffffffffffffffffffffffffff1673ffffffffffffffffffffffffffffffffffffffff16815260200160028201805461052d90610e82565b80601f016020809104026020016040519081016040528092919081815260200182805461055990610e82565b80156105a65780601f1061057b576101008083540402835291602001916105a6565b820191906000526020600020905b81548152906001019060200180831161058957829003601f168201915b505050505081526020016003820180546105bf90610e82565b80601f01602080910402602001604051908101604052809291908181526020018280546105eb90610e82565b80156106385780601f1061060d57610100808354040283529160200191610638565b820191906000526020600020905b81548152906001019060200180831161061b57829003601f168201915b505050505081526020016004820154815250508152602001906001019061044e565b50505050905092915050565b6060600160008373ffffffffffffffffffffffffffffffffffffffff1673ffffffffffffffffffffffffffffffffffffffff16815260200190815260200160002080548060200260200160405190810160405280929190818152602001828054801561072757602002820191906000526020600020905b8160009054906101000a900473ffffffffffffffffffffffffffffffffffffffff1673ffffffffffffffffffffffffffffffffffffffff16815260200190600101908083116106dd575b50505050509050919050565b600080600160008573ffffffffffffffffffffffffffffffffffffffff1673ffffffffffffffffffffffffffffffffffffffff168152602001908152602001600020905060005b818054905081101561083b578373ffffffffffffffffffffffffffffffffffffffff168282815481106107d6577f4e487b7100000000000000000000000000000000000000000000000000000000600052603260045260246000fd5b9060005260206000200160009054906101000a900473ffffffffffffffffffffffffffffffffffffffff1673ffffffffffffffffffffffffffffffffffffffff16141561082857600192505050610842565b808061083390610eb4565b91505061077a565b5060009150505b92915050565b82805461085490610e82565b90600052602060002090601f01602090048101928261087657600085556108bd565b82601f1061088f57805160ff19168380011785556108bd565b828001600101855582156108bd579182015b828111156108bc5782518255916020019190600101906108a1565b5b5090506108ca91906108ce565b5090565b5b808211156108e75760008160009055506001016108cf565b5090565b60006108fe6108f984610d35565b610d04565b90508281526020810184848401111561091657600080fd5b610921848285610e40565b509392505050565b60008135905061093881610f9b565b92915050565b600082601f83011261094f57600080fd5b813561095f8482602086016108eb565b91505092915050565b60006020828403121561097a57600080fd5b600061098884828501610929565b91505092915050565b600080604083850312156109a457600080fd5b60006109b285828601610929565b92505060206109c385828601610929565b9150509250929050565b600080600080608085870312156109e357600080fd5b60006109f187828801610929565b9450506020610a0287828801610929565b935050604085013567ffffffffffffffff811115610a1f57600080fd5b610a2b8782880161093e565b925050606085013567ffffffffffffffff811115610a4857600080fd5b610a548782880161093e565b91505092959194509250565b6000610a6c8383610a8c565b60208301905092915050565b6000610a848383610be0565b905092915050565b610a9581610e04565b82525050565b6000610aa682610d85565b610ab08185610dc0565b9350610abb83610d65565b8060005b83811015610aec578151610ad38882610a60565b9750610ade83610da6565b925050600181019050610abf565b5085935050505092915050565b6000610b0482610d90565b610b0e8185610dd1565b935083602082028501610b2085610d75565b8060005b85811015610b5c5784840389528151610b3d8582610a78565b9450610b4883610db3565b925060208a01995050600181019050610b24565b50829750879550505050505092915050565b6000610b7982610d9b565b610b838185610de2565b9350610b93818560208601610e4f565b610b9c81610f8a565b840191505092915050565b6000610bb282610d9b565b610bbc8185610df3565b9350610bcc818560208601610e4f565b610bd581610f8a565b840191505092915050565b600060a083016000830151610bf86000860182610a8c565b506020830151610c0b6020860182610a8c565b5060408301518482036040860152610c238282610b6e565b91505060608301518482036060860152610c3d8282610b6e565b9150506080830151610c526080860182610c5d565b508091505092915050565b610c6681610e36565b82525050565b610c7581610e36565b82525050565b60006020820190508181036000830152610c958184610a9b565b905092915050565b60006020820190508181036000830152610cb78184610af9565b905092915050565b60006060820190508181036000830152610cd98186610ba7565b90508181036020830152610ced8185610ba7565b9050610cfc6040830184610c6c565b949350505050565b6000604051905081810181811067ffffffffffffffff82111715610d2b57610d2a610f5b565b5b8060405250919050565b600067ffffffffffffffff821115610d5057610d4f610f5b565b5b601f19601f8301169050602081019050919050565b6000819050602082019050919050565b6000819050602082019050919050565b600081519050919050565b600081519050919050565b600081519050919050565b6000602082019050919050565b6000602082019050919050565b600082825260208201905092915050565b600082825260208201905092915050565b600082825260208201905092915050565b600082825260208201905092915050565b6000610e0f82610e16565b9050919050565b600073ffffffffffffffffffffffffffffffffffffffff82169050919050565b6000819050919050565b82818337600083830152505050565b60005b83811015610e6d578082015181840152602081019050610e52565b83811115610e7c576000848401525b50505050565b60006002820490506001821680610e9a57607f821691505b60208210811415610eae57610ead610f2c565b5b50919050565b6000610ebf82610e36565b91507fffffffffffffffffffffffffffffffffffffffffffffffffffffffffffffffff821415610ef257610ef1610efd565b5b600182019050919050565b7f4e487b7100000000000000000000000000000000000000000000000000000000600052601160045260246000fd5b7f4e487b7100000000000000000000000000000000000000000000000000000000600052602260045260246000fd5b7f4e487b7100000000000000000000000000000000000000000000000000000000600052604160045260246000fd5b6000601f19601f8301169050919050565b610fa481610e04565b8114610faf57600080fd5b5056fea2646970667358221220a62c7296ada453f5556d6a6bc87ae7d33833e1fc4e110873c175b51279de2e8164736f6c63430008000033",
  "linkReferences": {},
  "deployedLinkReferences": {}
}